:020000040800F2
:10000000A80800204D0200088F1C0008E31A000811
:100010008D1C000843040008B12100080000000006
:10002000000000000000000000000000171E000893
:100030005505000800000000151E0008191E0008E4
:1000400067020008670200086702000867020008EC
:1000500067020008670200086702000867020008DC
:1000600067020008670200086702000867020008CC
:1000700067020008670200086702000867020008BC
:1000800067020008670200086702000867020008AC
:1000900045040008670200086702000867020008BC
:1000A000670200086702000867020008670200088C
:1000B000670200086702000867020008670200087C
:1000C000670200086702000867020008670200086C
:1000D000670200086702000867020008670200085C
:1000E000670200086702000867020008670200084C
:1000F000670200086702000867020008670200083C
:10010000670200086702000867020008670200082B
:10011000670200086702000867020008670200081B
:10012000670200086702000867020008670200080B
:1001300067020008670200086702000867020008FB
:1001400067020008670200086702000867020008EB
:1001500099040008A5040008670200086702000867
:1001600067020008670200086702000867020008CB
:10017000670200086702000867020008000000002C
:1001800067020008670200086702000867020008AB
:10019000670200086702000867020008670200089B
:1001A00000000000000000006702000800F002F8F4
:1001B00000F03CF80AA090E8000C82448344AAF1C5
:1001C0000107DA4501D100F031F8AFF2090EBAE8C3
:1001D0000F0013F0010F18BFFB1A43F0010318477B
:1001E0001C2100003C210000103A24BF78C878C1CF
:1001F000FAD8520724BF30C830C144BF04680C602D
:10020000704700000023002400250026103A28BF74
:1002100078C1FBD8520728BF30C148BF0B60704778
:100220001FB502F055F81FBD10B510BD00F0CFF896
:100230001146FFF7F5FF01F0F1FF00F0EDF803B410
:10024000FFF7F2FF03BC00F0F5F800000948804713
:1002500009480047FEE7FEE7FEE7FEE7FEE7FEE7A8
:10026000FEE7FEE7FEE7FEE704480549054A064BC0
:1002700070470000B11E0008AD010008A802002070
:10028000A8080020A8040020A804002053EA020CBB
:1002900000F069802DE9F04B4FF00006002B1FBFE6
:1002A000B3FA83F503FA05F424FA05F65E4012BFAB
:1002B0001643B2FA82F502FA05F4C5F120051EBF15
:1002C00022FA05FC44EA0C04203556EA044C4FEAB5
:1002D000144418BF641C4FF000084FF0000990420E
:1002E00071EB030C39D3002919BFB1FA81F701FA78
:1002F00007F6B0FA80F700FA07F6C7F120071EBF2D
:1003000020FA07FC46EA0C062037B6FBF4FCA7EB04
:100310000507103F07F01F0BCBF120060CFA0BFB73
:100320002CFA06F644BFB3460026202FA4BF5E4633
:100330004FF0000B5BEA060C08BF4FF0010B19EB06
:100340000B09ABFB027C48EB0608C01B06FB02CC8A
:100350000BFB03CC71EB0C01C1E70B460246414697
:100360004846BDE8F08B13B54FF000004FF0000198
:10037000AFF30080BDE81C4070474FF0000200B5AD
:10038000134694469646203922BFA0E80C50A0E8B8
:100390000C50B1F12001BFF4F7AF090728BFA0E866
:1003A0000C5048BF0CC05DF804EB890028BF40F832
:1003B000042B08BF704748BF20F8022B11F0804F74
:1003C00018BF00F8012B704770477047704775469B
:1003D00000F02CF8AE4605006946534620F00700B1
:1003E000854618B020B5FFF73FFFBDE820404FF02D
:1003F00000064FF000074FF000084FF0000B21F00F
:100400000701AC46ACE8C009ACE8C009ACE8C009DB
:10041000ACE8C0098D46704710B50446AFF30080C4
:100420002046BDE81040FFF70ABF000000487047B3
:100430004802002001491820ABBEFEE7260002005A
:100440007047FEE7014800F0FAB90000980000206C
:1004500038B50F4C4FF4007525600025A560E560A8
:10046000082525610B4C050A25706070080AA070EC
:10047000E170100A20716271180AA0710449E371D9
:100480006B462246A1F1280000F079F838BD000043
:10049000C00000200D000020014800F01BBC00003F
:1004A00088010020014800F015BC0000E801002090
:1004B00001681823CAB2103AB2FBF3F2054B6FF38E
:1004C0000901032A9B5CC36500D9091D81650846A3
:1004D00070470000DA22000810B5014600208B6941
:1004E0008A6A4FF0C07453B1B3F5005F15D072B192
:1004F000012A0CD0022A0AD0032A09D104E01AB139
:10050000012A06D0022A03D1C96AC90100D50120F7
:1005100010BDC96AA142FAD010BD002AF7D0012A45
:10052000F2D0022AF3D0032AF3D010BD30B504680C
:10053000256825F480252560046863608368402B66
:10054000036803D099600068C26030BD9A6000689B
:10055000C16030BD704772B6FEE790F82020012AD6
:1005600007D0022A05D0416A41F48021416201206E
:100570007047006842690A43426100207047F0B545
:1005800090F820500468A468012D05D0022D03D0F6
:10059000416A41F4802153E014F0406F01D1E5003D
:1005A0004BD5C4F30164022C03D9416A41F4000124
:1005B00046E00125A5401D608D684FF4C0739DB1D4
:1005C000CE6835434E6845EAC605066803EB041756
:1005D000F5514FF4C275076805EB04150E697E519D
:1005E000097D012905D009E00E88CD6845EA465508
:1005F000EBE701684E5946F480764E511179D2F8F6
:1006000005504FF4C67641EA0525016806EB04164D
:100610008D511178D2F801204FF4C47541EA0221BE
:10062000026805EB04155151006803EB04114258B0
:1006300042F0010242500020F0BD416A41F4001135
:1006400041620120F0BD000010B590F82020012A81
:1006500007D0022A05D0416A41F48021416201207D
:1006600010BD3B48D0F8002242F00102C0F8002241
:10067000D0F8002222F47C52C0F80022D0F80022E8
:100680004B6A42EA0322C0F800220A7D02F01F03EF
:1006900001229A40D0F81C329343C0F81C32CB6937
:1006A000B3B9D0F80C329343C0F80C328C894B6844
:1006B00064F31F434C6900EBC404C4F840320C8956
:1006C0000B6864F31F434C6900EBC404C4F8443264
:1006D000CB69012B16D1D0F80C321343C0F80C3281
:1006E0000C884B6864F31F434C6900EBC404C4F8E6
:1006F00040320C89CB6864F31F434C6900EBC4049F
:10070000C4F844328B69002BD0F804320ED0134366
:10071000C0F804320B69002BD0F8143208D0134310
:10072000C0F81432096A012904D008E09343EFE7C6
:100730009343F5E7D0F81C121143C0F81C12D0F80F
:10074000001221F00101C0F80012002010BD0000CD
:1007500000640040704730B590F82040012C05D06F
:10076000022C03D0416A41F480215DE00468002935
:1007700055D02469A40754D04FF4D874056804EB0D
:1007800001142D5915F00405956005682D594ED0BA
:10079000ED08556005682C5904F00204D4604FF44C
:1007A000DA74056804EB01142D5905F00F05156185
:1007B00005682D59C5F30725956105682C59240C4A
:1007C00054614FF4DC72046802EB0112A4581C70EF
:1007D0000468A458240A5C700468A458240C9C7013
:1007E0000468A258120EDA704FF4DE72046802EB4D
:1007F0000112A4581C710468A458240A5C7104688E
:10080000A458240C9C710468A258120EDA71006876
:1008100081B1016941F020010161002030BDE4682F
:10082000A8E7416A41F400114162012030BD6D0D1D
:100830001560AFE7C16841F02001C160EDE72DE927
:10084000F05F0546006800244669D0F80490876888
:10085000D0F80CB0D0F810A0D0F81880F10748D02C
:10086000F90714D001218160B80703D5284600F0AC
:100870002AFA0CE0780702D54FF4006407E0380745
:1008800002D54FF4805402E0284600F01BFAF80528
:1008900016D529684FF480708860B80503D52846BE
:1008A00000F013FA0CE0780502D544F4005407E098
:1008B000380502D544F4804402E0284600F004FAEA
:1008C000F80316D529684FF480308860B80303D543
:1008D000284600F0FCF90CE0780302D544F400440B
:1008E00007E0380302D544F4803402E0284600F0E3
:1008F000EDF9300707D55FEACB6004D529681020F1
:1009000044F40074C86070074FF0080707D55FEA29
:100910000B7004D52868C760284600F057F9B00767
:1009200006D52868C068800702D0284600F050F934
:10093000700607D55FEACA6004D52968102044F420
:1009400080640861B00607D55FEA0A7004D528689C
:100950000761284600F086F9F00606D52868006988
:10096000800702D0284600F07EF9B00308D55FEA80
:10097000C96005D5296810204860284600F074F940
:10098000F00307D55FEA097004D528684760284658
:1009900000F09EF9300446D55FEA497040D5F00575
:1009A00004D55FEAC87001D044F00104B00504D555
:1009B0005FEA887001D544F00204700504D55FEA4F
:1009C000487001D544F00404300529D518F0700FA3
:1009D00026D008F07000402815D006DC102809D079
:1009E00020280AD0302816D10AE050280ED06028DE
:1009F00011D10EE044F008040DE044F010040AE0C8
:100A000044F0200407E044F0400404E044F0800493
:100A100001E044F480742868816921F070018161EB
:100A2000296804204860002C05D0686A2043686269
:100A30002846FFF78FFEBDE8F09F70B5040003D095
:100A400094F8200010B104E0012070BD204600F0B1
:100A500081F82068016841F00101016000F0DEFBCF
:100A60000546052604E000F0D9FB401B0A2811D8F2
:100A700020684068C007F6D02068016821F00201B4
:100A8000016000F0CBFB05460BE000F0C7FB401B0C
:100A90000A2806D9606A40F40030606284F8206059
:100AA000D2E7206840688007EFD4207E01282068C4
:100AB00001683DD021F080010160607E012820683E
:100AC000016838D021F040010160A07E0128206833
:100AD000016833D021F020010160E07E0128206808
:100AE00001682ED041F010010160207F01282068AC
:100AF000016829D021F008010160607F0128206889
:100B0000016824D021F004010160D4E90201084306
:100B1000D4E90412114308436168491E084321685F
:100B2000C86100206062012084F82000002070BDB0
:100B300041F08001C0E741F04001C5E741F02001EC
:100B4000CAE721F01001CFE741F00801D4E741F0F6
:100B50000401D9E710B586B0044614216846FFF7B2
:100B60000CFC17492068884227D1164800210268EA
:100B700042F000720260006800F0007005901148B9
:100B80001038026842F0080202600068022200F099
:100B9000080005900320CDE90210CDE900020920EC
:100BA00004906946084800F019FA00221146142002
:100BB00000F0A2FB142000F091FB06B010BD000075
:100BC0000064004040380240000C024070470000C2
:100BD00010B588B01F4B6A4600211F48FFF7BBFDC8
:100BE0000098A0F50070013805D0012803D0022834
:100BF00001D003282BD10098DFED180A401EC1B2A6
:100C0000144801EB8103093801700930028854BA95
:100C1000114A403222F8134041884CBA02EB43019A
:100C20004C80848864BA8C808079887132F8130093
:100C300000EE100AB8EE400A20EE200ADFED080AA6
:100C400020EE200ABDEEC00A10EE100A088108B09E
:100C500010BD0000150000209800002000000039A1
:100C60000000B443704770477047000070B50446F9
:100C700090F82000012804D0606A40F400206062EF
:100C800018E0022084F820002068016821F00101AA
:100C9000016000F0C3FA05460EE000BF00F0BEFAA6
:100CA000401B0A2808D9606A40F4003060620520C1
:100CB00084F82000012070BD20684068C007EDD195
:100CC000606270BD704770477047704770477047EB
:100CD000704700002DE9F84304464FF00009CDF8B5
:100CE000009063484FF41651A56D0068B0FBF1F712
:100CF0002E6894F85C10082000FA01F131420FD000
:100D000021680A6852070BD50A6822F004020A60BB
:100D100094F85C108840A860606D40F00100606548
:100D200094F85C104FF0010808FA01F0304208D046
:100D300021684969090604D5A860606D40F0020089
:100D4000606594F85C1004208840304208D0216827
:100D50000968890704D5A860606D40F004006065EB
:100D600094F85C1010208840304218D0216809683F
:100D7000090714D5A86020680168490304D50068F4
:100D8000000308D5A16C07E00168C90503D4016818
:100D900021F008010160216C09B12046884794F8D0
:100DA0005C1020208840304231D021680968C90693
:100DB0002DD5A86094F8350005282068016806D074
:100DC000490347D5006800031DD4616C1CE021F085
:100DD000160101602068416921F080014161206CA9
:100DE00008B9A06C20B12068016821F008010160F9
:100DF00094F85C103F208840A86084F8358084F81F
:100E00003490216D1FE0E16B09B120468847606D89
:100E100000282BD0606DC00714D0052084F8350061
:100E20002068016821F0010101600098401C0090D9
:100E3000B84203D820680068C007F6D184F835802E
:100E400084F83490E16C002910D001B02046BDE850
:100E5000F04308470168C905D5D4016821F01001A5
:100E6000016084F8358084F83490CCE7BDE8F883DD
:100E70002C0000202DE9F041044600F0CFF9064691
:100E80005CB1022084F83500002584F834502068D5
:100E9000016821F0010101600DE00120BDE8F08151
:100EA00000F0BCF9801B052805D9202060650320CF
:100EB00084F83500F2E720680068C007F0D12268A6
:100EC000116820480140D4E901031843D4E90336EE
:100ED0003343184363691843A3691843E36918430C
:100EE000236A18430843616A042903D1D4E90B1328
:100EF00019430843106020684069666A20F00701C2
:100F000030460E43012704280CD1A06A0643E06A4C
:100F100040B12046FFF7E0FA20B14020606584F838
:100F20003570BAE7206846612046FFF7C1FA94F8A9
:100F30005C203F2191408160656584F83570002018
:100F4000ACE700003F8010F02DE9F0410446866DCB
:100F500090F83400002501280DD0012084F83400D9
:100F600094F835700020012F07D084F83400022552
:100F70002846BDE8F0810220FBE7022784F835709F
:100F800060652046FFF7D2FA94F85C103F20884055
:100F9000B0602068016841F016010160206C20B14A
:100FA0002068016841F0080101602068016841F093
:100FB00001010160DCE7000070B5044600F02EF985
:100FC0000546601C02D004480078044400F026F96D
:100FD000401BA042FAD370BD200000202DE9F84F3D
:100FE000DFF8F8A10022012403254FF00F090AF1D0
:100FF000040BAAF1040E00BF0B6804FA02F633409A
:10100000B34270D10F7907F00307012F01D0022FEF
:1010100016D187684FEA420805FA08FC27EA0C0750
:10102000D1F80CC00CFA08FC4CEA070CC0F808C058
:101030004768B7430E79C6F3001696403E434660B4
:101040000E79F643B6070AD0C7684FEA420C05FA94
:101050000CF6B7438E6806FA0CF63E43C6600E796E
:1010600006F00306022E10D1D60800EB8608D8F849
:10107000206057074FEAD76C09FA0CF7BE430F6997
:1010800007FA0CF73743C8F8207006684FEA420C9D
:1010900005FA0CF7BE430F7907F0030707FA0CF7C0
:1010A000374307604E6816F4403F1CD04C4E3768FB
:1010B00047F480473760366822F0030706F480461D
:1010C0000096484E07EB060CDCF8086897073F0FC0
:1010D00009FA07F826EA0806DFF80C81404503D133
:1010E0004FF0000841E072E0DFF80081404502D196
:1010F0004FF0010839E0DFF8F880404502D14FF0A9
:10110000020832E0DFF8EC80404502D14FF00308DE
:101110002BE0DFF8E480404502D14FF0040824E0E2
:10112000DFF8D880404502D14FF005081DE0DFF818
:10113000D080404502D14FF0060816E0DFF8C480A9
:10114000404502D14FF007080FE0DFF8BC80404572
:1011500002D14FF0080808E0DFF8B080404502D126
:101160004FF0090801E04FF00A0808FA07F848EACA
:101170000608CCF80888DAF800605746D1F804C0B1
:101180009E435FEACC2C00D51E433E60DBF8006036
:101190005F46D1F804C09E435FEA8C2C00D51E4305
:1011A0003E60DEF800607746D1F804C09E435FEAF7
:1011B0008C3C00D51E433E60084F083F3E68D1F886
:1011C00004C09E435FEACC3C00D51E433E60521CE7
:1011D000102AFFF411AFBDE8F88F0000083C014071
:1011E0004438024000300140000002400004024048
:1011F00000080240000C02400010024000140240AF
:1012000000180240001C024000200240002402405E
:101210000AB1816170470904FBE70000014880685A
:1012200070470000200000200248816802781144C5
:1012300081607047200000200B4810B5016841F420
:1012400000710160016841F480610160016841F44E
:1012500080710160032000F06FF80F2000F006F8A5
:1012600000F024F8002010BD003C024070B50D4D88
:1012700004464FF47A712878B1FBF0F00A49096806
:10128000B1FBF0F000F00CFB48B9102C07D20022A3
:101290002146501E00F030F800206C6070BD012027
:1012A00070BD0000200000202C0000200A4808B576
:1012B000016841F480410160006800F480400090C2
:1012C0000548001F016841F080510160006800F08E
:1012D0008050009008BD000044380240002809DB1F
:1012E00000F01F02012191404009800000F1E02040
:1012F000C0F8001170470000F0B40E4B1B680C469C
:10130000C3F30223C3F10705042D00D90425191DD9
:10131000072901D2002300E0DB1E012606FA05F1B1
:10132000491E214099409E40761E16403143F0BC34
:1013300000F03FBF0CED00E0064900F0070208682E
:101340004FF6FF03184040EA0220034A10430860AA
:10135000704700000CED00E00000FA052DE9F047B1
:101360000E46050065D0DFF81481D8F80000F7B20A
:1013700000F00F00B04207D288F80070D8F80000E3
:1013800000F00F00B04254D128683D4C810712D5BF
:10139000400703D5206840F4E0502060287800071B
:1013A00003D5206840F4604020602068A96820F0E0
:1013B000F000084320602878C0072DD030496868C5
:1013C0000839012812D0022813D0032811D0096847
:1013D000890700292DDA216821F0030101432160EA
:1013E000FFF71CFF814641F2883A0EE00968890345
:1013F000EFE709688901ECE7FFF710FFA0EB0901AF
:10140000514502D90320BDE8F0872068696800F0E3
:101410000C00B0EB810FEFD1D8F80010404601F07E
:101420000F01B14207D90770006800F00F00B04209
:1014300001D00120E7E72878400705D52068E96852
:1014400020F4E050084320602878000706D5206883
:10145000296920F4604040EAC100206000F038F8BB
:101460002168084AC1F30311515CC840064908606D
:1014700006480068FFF7FAFE0020C4E7003C02407F
:1014800008380240E22200082C000020240000203E
:101490000448054900680968044AC1F38221515C87
:1014A000C84070472C00002008380240F222000893
:1014B0000448054900680968044AC1F34231515C97
:1014C000C84070472C00002008380240F222000873
:1014D000154810B5006810F00C02144813D01449D8
:1014E000042A0FD0082A0ED10F4C241F226823682B
:1014F00002F03F025B0207D52068C0F38810A0FB12
:10150000010106E0084610BD2168C1F38811A1FB66
:1015100000010023FEF7BAFE2168C1F30141491C16
:101520004900B0FBF1F010BD083802400024F4007F
:1015300040787D012DE9F84F04006ED02078DFF867
:101540004C93C007A9F104054AD009F104000168D1
:10155000C1F38101012908D00068C0F3810002288D
:101560000AD1D9F80000400206D52868800337D593
:1015700060680028E1D033E06068B0F5803F10D0AB
:10158000B0F5A02F286810D020F48030286028689B
:1015900020F4802028606068A8B1FFF73FFE06466F
:1015A0000DE0286840F48030F4E740F480202860A3
:1015B000F7E700BFFFF732FE801B642873D8286866
:1015C0008003F7D50CE0FFF729FE064605E000BFD3
:1015D000FFF724FE801B6428F0D828688003F7D426
:1015E0002078DFF8AC8280074FF0000A3ED5A7488C
:1015F000001D016811F00C0F08D00068C0F38100D5
:1016000002280BD1D9F80000400207D428688007CF
:1016100016D5E068012800D112E033E1E068B8B1E6
:101620000120C8F80000FFF7F9FD064605E000BFFD
:10163000FFF7F4FD801B0228C0D828688007F7D583
:101640002868216920F0F80040EAC10028600DE018
:10165000C8F800A0FFF7E2FD064604E0FFF7DEFD54
:10166000801B02281FD828688007F7D4207800073D
:1016700022D5864F87486169703771B101210160B9
:10168000FFF7CCFD064604E0FFF7C8FD801B0228EB
:1016900009D838688007F7D50EE0C0F800A0FFF73A
:1016A000BDFD064605E082E0FFF7B8FD801B02287D
:1016B0007DD838688007F7D42078400768D5DFF8F0
:1016C000CCB100270BF13C0BDBF80000C0000BD4C1
:1016D000DBF8001041F08051CBF80010DBF800007F
:1016E000012700F0805000906B4E3068C00510D488
:1016F000306840F480703060FFF790FD009005E0A6
:10170000FFF78CFD0099401A022850D83068C005B8
:10171000F6D55E4EA0686C3601280FD005283068DB
:1017200010D020F001003060306820F004003060FC
:10173000A068B8B1FFF772FD00900FE0306840F08C
:101740000100F4E740F004003060F7E7FFF766FDC2
:101750000099411A41F28830814266D8306880078A
:10176000F4D50EE0FFF75AFD009007E0FFF756FDB5
:101770000099411A41F28830814256D8306880077A
:10178000F4D42FB1DBF8001021F08051CBF8001019
:10179000A069C8B33D49091D0968C1F38101022947
:1017A0004AD00228504607D0C8F8600000E03CE06C
:1017B000FFF734FD04463BE04746C8F86000FFF7FA
:1017C0002DFD064605E000BFFFF728FD801B02281F
:1017D0002BD828688001F7D4D4E907010843A16A0F
:1017E0002E4A490802EB0141626A41EA821108432C
:1017F00094F82C1040EA0161C9F800100120386605
:10180000FFF70CFD044606E03EE000BFFFF706FDD3
:10181000001B022809D828688001F7D534E000BFF2
:10182000FFF7FCFC001B022802D90320BDE8F88F5B
:1018300028688001F4D427E00128F7D0D9F8000007
:10184000E26900F4800191421CD1226A00F03F015C
:10185000914217D147F6C071626A0140B1EB821F15
:1018600010D1A26A4FF0FF3300F4403103EB520273
:10187000B1EB024F06D194F82C1000F07060B0EB81
:10188000016F01D00120D1E70020CFE704380240EA
:1018900000004742800E4742007000400000FFFFFA
:1018A00010B5401EB0F1807F01D3012010BD4FF074
:1018B000E02460610F21601700F07BFC0020A06134
:1018C00007202061002010BD7047704770B50400EC
:1018D00004D094F83D00002510B106E0012070BD51
:1018E00084F83C50204600F023F8242084F83D0082
:1018F0002068C16821F40051C160204600F088FBD7
:101900002068016921F4904101612068416921F05A
:101910002A0141612068C16841F40051C160256419
:10192000202084F83D0084F83E00002070BD0000B7
:101930002DE9F04186B0064614216846FEF71DFDEC
:101940003D48DFF8F0C01438356800243A490222D7
:10195000032307154FF4403865452FD10D6845F036
:1019600010050D60096801F010010591016841F052
:10197000020101600068694600F002000590C02085
:101980008DE815000720CDE903302C48FFF726FB32
:101990002C4D2B4828607804C5E90104C5E90347AC
:1019A000C0146C61C5E90640C5E908842846FFF704
:1019B00061FA08B1FEF7CFFDB56337E0DFF888C004
:1019C000654534D10D6845F020050D60096801F0CA
:1019D00020010591016841F04001016000686946FD
:1019E00000F0400005904FF484408DE81500082079
:1019F000CDE903301548FFF7F1FA124D1048603574
:101A0000183028604FF02060686005F1080C402015
:101A10008CE891006C61AC61C5E9074828466C62AE
:101A2000FFF728FA08B1FEF796FD7563AE6306B0BE
:101A3000BDE8F0810010014044380240000402403B
:101A40008864024088010020001401400018024010
:101A500090F83E30202B0ED159B152B190F83C3065
:101A6000012B08D0012380F83C300023036300F0F1
:101A700055BB0120704702207047000017480188BD
:101A8000C1F30A02A0F10C01A2F580620A8042783B
:101A90008378D20842EA4312C2F30A02A2F58062B6
:101AA0004A809A09C37842EA8302037942EA832290
:101AB000C2F30A02A2F580628A805A08437942EA98
:101AC000C312C2F30A02A2F58062CA809A090A729E
:101AD000C3F301124A72008A488170473C0000201B
:101AE0007047FEE70F4810B50D49016003214160C2
:101AF00000214FF410228160C0E903124FF400125C
:101B00004261017641768176C17601774177FEF7B1
:101B100094FF002803D0BDE81040FEF71CBD10BDA7
:101B200000640040980000200D4808B5016841F4A9
:101B3000800101600068002200F4800000901146DE
:101B40004420FFF7D9FB4420FFF7C8FB00221146D1
:101B50004520FFF7D1FBBDE808404520FFF7BEBB9D
:101B600030380240F0B587B014216846FEF705FC16
:101B70002548016841F040010160016801F0400121
:101B80000591016841F002010160016801F0020164
:101B90000591016841F008010160016801F0080148
:101BA0000591016841F010010160016801F0100128
:101BB0000591016841F0200101600068134E00F0BA
:101BC00020004FF400640590002221463046FFF7C4
:101BD0001FFB0F4FE500002229463846FFF718FB90
:101BE0000094012401940294694630460394FFF75F
:101BF000F5F9CDE900540294694638460394FFF79D
:101C0000EDF907B0F0BD000030380240001002408E
:101C1000001402400D4810B50B4901600C494160A9
:101C200000214FF480628160C0E903120C22C0E9F8
:101C30000521C161FFF74AFE002803D0BDE810402E
:101C4000FEF789BC10BD000000100140000100201B
:101C5000A08601000C4810B50A4901604FF4E1313B
:101C60004160002181600C22C160C0E904128161E1
:101C7000C161FFF72BFE002803D0BDE81040FEF73E
:101C80006ABC10BD0014014044010020FEE7FEE7DD
:101C9000A0B1D0ED101AC0ED111A90ED0F1A80ED21
:101CA000101AC0ED060A80ED070A30EEC00A80ED7A
:101CB0000F0A017829B101293BD078E09FED3D0A58
:101CC0007047D0ED010A60EE801AC0ED091AD0ED20
:101CD0000A0A90ED022A42EE000A30EE410AC0EDF7
:101CE0000A0A90ED0D2A80ED0E2A90ED0C2A80ED67
:101CF0000D2A80ED0C0A90ED031A21EE001A80EDFA
:101D00000B1A90ED050AF4EEC00AF1EE10FA09DCA8
:101D1000B1EE400AF4EEC00AF1EE10FA02D390EDF3
:101D20000A0A01E080ED0A0A31EE800A30EE010A6B
:101D30002BE070EE410A90ED012A20EE822A80ED20
:101D4000092AD0ED020A60EE800AC0ED0A0AD0ED41
:101D50000D2A72EE200AC0ED0E2AD0ED0C2AC0ED3D
:101D60000D2AF0EE002A01EE620A30EE210A80ED23
:101D70000C0A90ED031A21EE000A80ED0B0A30EEFA
:101D8000800AD0ED080A30EE200A80ED080AD0ED76
:101D9000040AB4EEE00AF1EE10FA06DCF1EE600A95
:101DA000B4EEE00AF1EE10FA01D2C0ED080A90EDAF
:101DB000080A704700000000002828D0002A26D01A
:101DC000017092ED001A80ED011A92ED011A80ED7A
:101DD000021A92ED021A80ED031A80ED040A9FEDBB
:101DE0000C0AC0ED050A80ED0E0A80ED0D0A80EDAB
:101DF0000C0A80ED080A80ED0B0A80ED0A0A80EDDE
:101E0000090A80ED110A80ED100A80ED0F0A704773
:101E10000000000070477047FFF706BA30B593B076
:101E200030216846FEF7A9FA14210CA8FEF7A5FA9E
:101E30001D480025016841F080510160006800F0F4
:101E4000805011901948016841F4404101600068D8
:101E5000022400F4404011900120039010200490CF
:101E6000009406940820CDE90750A820CDE9090484
:101E700004200B906846FFF75DFB08B172B6FEE7E1
:101E80000CA90F2081E831004FF4A0500F904FF4BF
:101E90008050109005210CA8FFF760FA002801D0AF
:101EA00072B6FEE713B030BD40380240007000400B
:101EB0000248016841F470010160704788ED00E05C
:101EC00070B5846B2068406994F83D10C0F3C01071
:101ED0000025212904D118B1E584204600F08AF8B4
:101EE0002068406994F83E10C0F38010222904D184
:101EF00018B1E585204600F056F8206C40F010003F
:101F000020642046FFF7E1FC70BD10B50146806BF0
:101F100009680968C9052FD40021C18501680C3101
:101F200051E8002F22F4807241E80023002BF5D104
:101F30000168143151E8002F22F0010241E800232A
:101F4000002BF5D10168143151E8002F22F0400236
:101F500041E80023002BF5D1202180F83E10016BD1
:101F6000012909D101680C3151E8002F22F010023B
:101F700041E80023002BF5D1016B012902D0FFF7C6
:101F80007DFD10BD818DFFF79FFC10BD10B5806BEE
:101F9000016B012902D0FFF7A3FD10BD818D490817
:101FA000FFF792FC10BD01680C3151E8002F22F4BC
:101FB000907241E80023002BF5D10168143151E8FB
:101FC000002F22F0010241E80023002BF5D1016B24
:101FD000012909D101680C3151E8002F22F01002CB
:101FE00041E80023002BF5D1202180F83E1000218C
:101FF0000163704701680C3151E8002F22F0C002E4
:1020000041E80023002BF5D1202180F83D107047D6
:1020100070B5044600680169E26821F4405111433B
:1020200001612169A068E2690843616911430843BD
:102030002168CA6849F20C639A430243CA60206867
:102040004169A26921F4407111434161314920681D
:10205000884202D03049884202D1FFF729FA01E0D4
:10206000FFF716FAE2690023192164253226B2F53A
:10207000004F626828D0A0FB0101930F9200FEF789
:1020800005F90146B0FBF5F06FF01802504301EB83
:10209000800006EB0010B0FBF5F000F0F002B1FBA1
:1020A000F5F002EB0012B1FBF5F06FF018035843A6
:1020B00001EB800006EB0010B0FBF5F000F00F0024
:1020C00021681044886070BDA0FB010192185B413B
:1020D000FEF7DCF80146B0FBF5F00201B1FBF5F0CC
:1020E0006FF01803584301EB800006EBC000B0FB13
:1020F000F5F000F0F80002EB4002B1FBF5F05843B8
:1021000001EB800006EBC000B0FBF5F000F007002B
:10211000D6E70000001001400014014038B581628C
:1021200082850025134604460564222084F83E007B
:10213000A26B1C48D063A26B1B481064A26B1B48A7
:10214000D064A06B0A4605652168A06B091DFEF7E7
:10215000FBFE206801684068009084F83C502069CC
:1021600048B120680C3050E8001F41F4807140E80D
:102170000012002AF5D12068143050E8001F41F009
:10218000010140E80012002AF5D12068143050E81F
:10219000001F41F0400140E80012002AF5D1002064
:1021A00038BD00000B1F00088D1F0008C11E00086D
:1021B000FEE70907090E002804DB00F1E02080F8A3
:1021C0000014704700F00F0000F1E02080F8141DAB
:1021D0007047000010B500F00BF80448FEF746FD0C
:1021E000BDE8104002210148FEF7B7B99800002071
:1021F00000B58BB000200121CDE9060108910090C7
:102200000190029003900590049069460248FEF701
:102210001BFA0BB000BD0000980000202DED028BD2
:10222000FFF70AF8FFF7FAFDFFF79CFCFFF77CFCCD
:10223000FFF758FCFFF7EEFCFFF70CFD12221E49DA
:102240001E48FFF705FC1D480068C16841F01001F9
:10225000C160FFF7BFFF9FED1A0A1748194AF0EE59
:10226000400A00211430FFF7A7FD134C164D9FEDD7
:10227000178A1434B5F90C00F0EE480A00EE100A83
:102280000D48B8EEC00A1430FFF702FD94ED080ABD
:10229000BDEEC00A10EE100A03B210EE100A02B230
:1022A00010EE100A01B210EE100A00B2FEF7D0F8DC
:1022B0000A20FEF781FEDDE73C000020000100203F
:1022C00000007A4600000020D800002000007A4478
:1022D0004FF04070E1EE100A70470006101600063D
:1022E00010160000000000000000010203040607B1
:1022F0000809000000000102030400001C2300087C
:102300000000002030000000E80100084C23000815
:10231000300000207808000004020008000040405F
:10232000CDCCCC3D0000000000000000000000000B
:10233000000000000000000000000000010000009C
:0C23400010000000000000000024F40069
:04000005080001AD41
:00000001FF
